:1000000012C017C016C015C014C013C012C011C052
:1000100010C00FC00EC00DC00CC00BC00AC009C07C
:1000200008C007C006C011241FBECFEDCDBF1AD037
:1000300059C0E6CFBB9A20E049E150E0C39A88E876
:1000400093E1FA013197F1F70197D9F7C39888E85E
:1000500093E1FA013197F1F70197D9F72F5F223039
:1000600069F7089587B38C6187BB8D9A18BA12BA65
:100070008CE01AD02DD0823461F0833418F48134AE
:1000800071F405C0833439F0843449F406C0C39A4E
:10009000F1CFC49AEFCFC29AEDCF959AEBCFC39828
:1000A000C498C2989598E6CF91B3986191BB12B865
:1000B00089B983B1866083B90895982F81B3886127
:1000C00081BB949A939A539A5D9BFECF9CB90895F5
:1000D00081B3886181BB94989398549A5F9BFECFBB
:0800E0008CB10895F894FFCFE4
:00000001FF
